{"contracts/StudentRegistry.sol":{"StudentRegistry":{"abi":[{"inputs":[],"stateMutability":"nonpayable","type":"constructor"},{"inputs":[],"name":"AccessControlBadConfirmation","type":"error"},{"inputs":[{"internalType":"address","name":"account","type":"address"},{"internalType":"bytes32","name":"neededRole","type":"bytes32"}],"name":"AccessControlUnauthorizedAccount","type":"error"},{"anonymous":false,"inputs":[{"indexed":true,"internalType":"bytes32","name":"studentIdHash","type":"bytes32"},{"indexed":false,"internalType":"bytes32","name":"dataHash","type":"bytes32"},{"indexed":true,"internalType":"address","name":"actor","type":"address"}],"name":"RecordAdded","type":"event"},{"anonymous":false,"inputs":[{"indexed":true,"internalType":"bytes32","name":"studentIdHash","type":"bytes32"},{"indexed":true,"internalType":"address","name":"actor","type":"address"}],"name":"RecordDeactivated","type":"event"},{"anonymous":false,"inputs":[{"indexed":true,"internalType":"bytes32","name":"studentIdHash","type":"bytes32"},{"indexed":false,"internalType":"bytes32","name":"dataHash","type":"bytes32"},{"indexed":true,"internalType":"address","name":"actor","type":"address"}],"name":"RecordUpdated","type":"event"},{"anonymous":false,"inputs":[{"indexed":true,"internalType":"bytes32","name":"role","type":"bytes32"},{"indexed":true,"internalType":"bytes32","name":"previousAdminRole","type":"bytes32"},{"indexed":true,"internalType":"bytes32","name":"newAdminRole","type":"bytes32"}],"name":"RoleAdminChanged","type":"event"},{"anonymous":false,"inputs":[{"indexed":true,"internalType":"bytes32","name":"role","type":"bytes32"},{"indexed":true,"internalType":"address","name":"account","type":"address"},{"indexed":true,"internalType":"address","name":"sender","type":"address"}],"name":"RoleGranted","type":"event"},{"anonymous":false,"inputs":[{"indexed":true,"internalType":"bytes32","name":"role","type":"bytes32"},{"indexed":true,"internalType":"address","name":"account","type":"address"},{"indexed":true,"internalType":"address","name":"sender","type":"address"}],"name":"RoleRevoked","type":"event"},{"anonymous":false,"inputs":[{"indexed":true,"internalType":"address","name":"account","type":"address"},{"indexed":true,"internalType":"address","name":"grantedBy","type":"address"}],"name":"TeacherGranted","type":"event"},{"anonymous":false,"inputs":[{"indexed":true,"internalType":"address","name":"account","type":"address"},{"indexed":true,"internalType":"address","name":"revokedBy","type":"address"}],"name":"TeacherRevoked","type":"event"},{"inputs":[],"name":"DEFAULT_ADMIN_ROLE","outputs":[{"internalType":"bytes32","name":"","type":"bytes32"}],"stateMutability":"view","type":"function"},{"inputs":[],"name":"TEACHER_ROLE","outputs":[{"internalType":"bytes32","name":"","type":"bytes32"}],"stateMutability":"view","type":"function"},{"inputs":[{"internalType":"bytes32","name":"studentIdHash","type":"bytes32"}],"name":"deactivate","outputs":[],"stateMutability":"nonpayable","type":"function"},{"inputs":[{"internalType":"bytes32","name":"studentIdHash","type":"bytes32"}],"name":"getRecord","outputs":[{"internalType":"bytes32","name":"dataHash","type":"bytes32"},{"internalType":"address","name":"lastUpdatedBy","type":"address"},{"internalType":"uint64","name":"updatedAt","type":"uint64"},{"internalType":"bool","name":"isActive","type":"bool"}],"stateMutability":"view","type":"function"},{"inputs":[{"internalType":"bytes32","name":"role","type":"bytes32"}],"name":"getRoleAdmin","outputs":[{"internalType":"bytes32","name":"","type":"bytes32"}],"stateMutability":"view","type":"function"},{"inputs":[{"internalType":"bytes32","name":"role","type":"bytes32"},{"internalType":"address","name":"account","type":"address"}],"name":"grantRole","outputs":[],"stateMutability":"nonpayable","type":"function"},{"inputs":[{"internalType":"address","name":"account","type":"address"}],"name":"grantTeacher","outputs":[],"stateMutability":"nonpayable","type":"function"},{"inputs":[{"internalType":"bytes32","name":"studentIdHash","type":"bytes32"}],"name":"hasRecord","outputs":[{"internalType":"bool","name":"","type":"bool"}],"stateMutability":"view","type":"function"},{"inputs":[{"internalType":"bytes32","name":"role","type":"bytes32"},{"internalType":"address","name":"account","type":"address"}],"name":"hasRole","outputs":[{"internalType":"bool","name":"","type":"bool"}],"stateMutability":"view","type":"function"},{"inputs":[{"internalType":"bytes32","name":"role","type":"bytes32"},{"internalType":"address","name":"callerConfirmation","type":"address"}],"name":"renounceRole","outputs":[],"stateMutability":"nonpayable","type":"function"},{"inputs":[{"internalType":"bytes32","name":"role","type":"bytes32"},{"internalType":"address","name":"account","type":"address"}],"name":"revokeRole","outputs":[],"stateMutability":"nonpayable","type":"function"},{"inputs":[{"internalType":"address","name":"account","type":"address"}],"name":"revokeTeacher","outputs":[],"stateMutability":"nonpayable","type":"function"},{"inputs":[{"internalType":"bytes4","name":"interfaceId","type":"bytes4"}],"name":"supportsInterface","outputs":[{"internalType":"bool","name":"","type":"bool"}],"stateMutability":"view","type":"function"},{"inputs":[{"internalType":"bytes32","name":"studentIdHash","type":"bytes32"},{"internalType":"bytes32","name":"dataHash","type":"bytes32"}],"name":"upsertRecord","outputs":[],"stateMutability":"nonpayable","type":"function"},{"inputs":[],"name":"version","outputs":[{"internalType":"string","name":"","type":"string"}],"stateMutability":"pure","type":"function"}],"evm":{"bytecode":{"linkReferences":{},"object":"608060405234801561001057600080fd5b5061001c600033610022565b506100ce565b6000828152602081815260408083206001600160a01b038516845290915281205460ff166100c4576000838152602081815260408083206001600160a01b03861684529091529020805460ff1916600117905561007c3390565b6001600160a01b0316826001600160a01b0316847f2f8788117e7eff1d82e926ec794901d17c78024a50270940304540a733656f0d60405160405180910390a45060016100c8565b5060005b92915050565b610a0e806100dd6000396000f3fe608060405234801561001057600080fd5b50600436106100f55760003560e01c806336568abe11610097578063a217fddf11610066578063a217fddf146102b1578063b0a0cfd7146102b9578063d547741f146102cc578063f59d3abe146102df57600080fd5b806336568abe1461024f57806354fd4d501461026257806386e5c15a1461028957806391d148541461029e57600080fd5b806322eee84c116100d357806322eee84c146101e3578063248a9ca3146101f857806329ddb3ba146102295780632f2ff15d1461023c57600080fd5b806301ffc9a7146100fa5780630b95824b14610122578063213681cd14610159575b600080fd5b61010d61010836600461089a565b6102f2565b60405190151581526020015b60405180910390f35b61010d6101303660046108cb565b60009081526001602081905260409091200154600160a01b900467ffffffffffffffff16151590565b6101aa6101673660046108cb565b6000908152600160208190526040909120805491015490916001600160a01b03821691600160a01b810467ffffffffffffffff1691600160e01b90910460ff1690565b604080519485526001600160a01b03909316602085015267ffffffffffffffff9091169183019190915215156060820152608001610119565b6101f66101f13660046108cb565b610329565b005b61021b6102063660046108cb565b60009081526020819052604090206001015490565b604051908152602001610119565b6101f66102373660046108e4565b610465565b6101f661024a366004610922565b6105e6565b6101f661025d366004610922565b610611565b60408051808201825260058152640312e302e360dc1b60208201529051610119919061094e565b61021b6000805160206109b983398151915281565b61010d6102ac366004610922565b610649565b61021b600081565b6101f66102c736600461099d565b610672565b6101f66102da366004610922565b6106d0565b6101f66102ed36600461099d565b6106f5565b60006001600160e01b03198216637965db0b60e01b148061032357506301ffc9a760e01b6001600160e01b03198316145b92915050565b6000805160206109b983398151915261034181610753565b60008281526001602081905260408220908101549091600160a01b90910467ffffffffffffffff1690036103ad5760405162461bcd60e51b815260206004820152600e60248201526d5265636f7264206d697373696e6760901b60448201526064015b60405180910390fd5b6001810154600160e01b900460ff166103fc5760405162461bcd60e51b81526020600482015260116024820152705265636f7264206e6f742061637469766560781b60448201526064016103a4565b6001810180546001600160e81b0319163367ffffffffffffffff60a01b19811691909117600160a01b4267ffffffffffffffff16021790915560405184907fac6317dfd4553e8189eb70da37d8639680a8402cd2b58968ed9fcaa0ed1f98be90600090a3505050565b6000805160206109b983398151915261047d81610753565b826104c35760405162461bcd60e51b81526020600482015260166024820152751cdd1d59195b9d125912185cda081c995c5d5a5c995960521b60448201526064016103a4565b816105045760405162461bcd60e51b815260206004820152601160248201527019185d1852185cda081c995c5d5a5c9959607a1b60448201526064016103a4565b6000838152600160208190526040909120908101805484835560ff60e01b194267ffffffffffffffff908116600160a01b90810267ffffffffffffffff60a01b1933166001600160e01b03198616171792909216600160e01b179093559004161580156105a757604051848152339086907fed8a341186d98323e365768f9f0d1a8f4bee0348c651d64e4838a28fbe69420e9060200160405180910390a36105df565b604051848152339086907fcfbf569fd89865b2715a29f5ff34df5a6bf5206e4f30d5e29c34b96b3922a8e79060200160405180910390a35b5050505050565b60008281526020819052604090206001015461060181610753565b61060b8383610760565b50505050565b6001600160a01b038116331461063a5760405163334bd91960e11b815260040160405180910390fd5b61064482826107f2565b505050565b6000918252602082815260408084206001600160a01b0393909316845291905290205460ff1690565b600061067d81610753565b6106956000805160206109b9833981519152836107f2565b5060405133906001600160a01b038416907f9904953bb513aab6c91617971de155af91f29b17d1d92f4e5c5378dcea1ec3a290600090a35050565b6000828152602081905260409020600101546106eb81610753565b61060b83836107f2565b600061070081610753565b6107186000805160206109b983398151915283610760565b5060405133906001600160a01b038416907fcf99003efe555dad594e29c94805056e4a181044b6e05b04144706134f55c17c90600090a35050565b61075d813361085d565b50565b600061076c8383610649565b6107ea576000838152602081815260408083206001600160a01b03861684529091529020805460ff191660011790556107a23390565b6001600160a01b0316826001600160a01b0316847f2f8788117e7eff1d82e926ec794901d17c78024a50270940304540a733656f0d60405160405180910390a4506001610323565b506000610323565b60006107fe8383610649565b156107ea576000838152602081815260408083206001600160a01b0386168085529252808320805460ff1916905551339286917ff6391f5c32d9c69d2a47ea670b442974b53935d1edc7fd64eb21e047a839171b9190a4506001610323565b6108678282610649565b6108965760405163e2517d3f60e01b81526001600160a01b0382166004820152602481018390526044016103a4565b5050565b6000602082840312156108ac57600080fd5b81356001600160e01b0319811681146108c457600080fd5b9392505050565b6000602082840312156108dd57600080fd5b5035919050565b600080604083850312156108f757600080fd5b50508035926020909101359150565b80356001600160a01b038116811461091d57600080fd5b919050565b6000806040838503121561093557600080fd5b8235915061094560208401610906565b90509250929050565b60006020808352835180602085015260005b8181101561097c57858101830151858201604001528201610960565b506000604082860101526040601f19601f8301168501019250505092915050565b6000602082840312156109af57600080fd5b6108c48261090656fed16e204b8a42a15ab0ea6bb8ec1ecdfbe69f38074fc865323af19efe7d9573d9a264697066735822122041d04df6b418e07a8c8fb7f3322540ac33551d2d5b369822bbf26db20407f91164736f6c63430008180033","opcodes":"PUSH1 0x80 PUSH1 0x40 MSTORE CALLVALUE DUP1 ISZERO PUSH2 0x10 JUMPI PUSH1 0x0 DUP1 REVERT JUMPDEST POP PUSH2 0x1C PUSH1 0x0 CALLER PUSH2 0x22 JUMP JUMPDEST POP PUSH2 0xCE JUMP JUMPDEST PUSH1 0x0 DUP3 DUP2 MSTORE PUSH1 0x20 DUP2 DUP2 MSTORE PUSH1 0x40 DUP1 DUP4 KECCAK256 PUSH1 0x1 PUSH1 0x1 PUSH1 0xA0 SHL SUB DUP6 AND DUP5 MSTORE SWAP1 SWAP2 MSTORE DUP2 KECCAK256 SLOAD PUSH1 0xFF AND PUSH2 0xC4 JUMPI PUSH1 0x0 DUP4 DUP2 MSTORE PUSH1 0x20 DUP2 DUP2 MSTORE PUSH1 0x40 DUP1 DUP4 KECCAK256 PUSH1 0x1 PUSH1 0x1 PUSH1 0xA0 SHL SUB DUP7 AND DUP5 MSTORE SWAP1 SWAP2 MSTORE SWAP1 KECCAK256 DUP1 SLOAD PUSH1 0xFF NOT AND PUSH1 0x1 OR SWAP1 SSTORE PUSH2 0x7C CALLER SWAP1 JUMP JUMPDEST PUSH1 0x1 PUSH1 0x1 PUSH1 0xA0 SHL SUB AND DUP3 PUSH1 0x1 PUSH1 0x1 PUSH1 0xA0 SHL SUB AND DUP5 PUSH32 0x2F8788117E7EFF1D82E926EC794901D17C78024A50270940304540A733656F0D PUSH1 0x40 MLOAD PUSH1 0x40 MLOAD DUP1 SWAP2 SUB SWAP1 LOG4 POP PUSH1 0x1 PUSH2 0xC8 JUMP JUMPDEST POP PUSH1 0x0 JUMPDEST SWAP3 SWAP2 POP POP JUMP JUMPDEST PUSH2 0xA0E DUP1 PUSH2 0xDD PUSH1 0x0 CODECOPY PUSH1 0x0 RETURN INVALID PUSH1 0x80 PUSH1 0x40 MSTORE CALLVALUE DUP1 ISZERO PUSH2 0x10 JUMPI PUSH1 0x0 DUP1 REVERT JUMPDEST POP PUSH1 0x4 CALLDATASIZE LT PUSH2 0xF5 JUMPI PUSH1 0x0 CALLDATALOAD PUSH1 0xE0 SHR DUP1 PUSH4 0x36568ABE GT PUSH2 0x97 JUMPI DUP1 PUSH4 0xA217FDDF GT PUSH2 0x66 JUMPI DUP1 PUSH4 0xA217FDDF EQ PUSH2 0x2B1 JUMPI DUP1 PUSH4 0xB0A0CFD7 EQ PUSH2 0x2B9 JUMPI DUP1 PUSH4 0xD547741F EQ PUSH2 0x2CC JUMPI DUP1 PUSH4 0xF59D3ABE EQ PUSH2 0x2DF JUMPI PUSH1 0x0 DUP1 REVERT JUMPDEST DUP1 PUSH4 0x36568ABE EQ PUSH2 0x24F JUMPI DUP1 PUSH4 0x54FD4D50 EQ PUSH2 0x262 JUMPI DUP1 PUSH4 0x86E5C15A EQ PUSH2 0x289 JUMPI DUP1 PUSH4 0x91D14854 EQ PUSH2 0x29E JUMPI PUSH1 0x0 DUP1 REVERT JUMPDEST DUP1 PUSH4 0x22EEE84C GT PUSH2 0xD3 JUMPI DUP1 PUSH4 0x22EEE84C EQ PUSH2 0x1E3 JUMPI DUP1 PUSH4 0x248A9CA3 EQ PUSH2 0x1F8 JUMPI DUP1 PUSH4 0x29DDB3BA EQ PUSH2 0x229 JUMPI DUP1 PUSH4 0x2F2FF15D EQ PUSH2 0x23C JUMPI PUSH1 0x0 DUP1 REVERT JUMPDEST DUP1 PUSH4 0x1FFC9A7 EQ PUSH2 0xFA JUMPI DUP1 PUSH4 0xB95824B EQ PUSH2 0x122 JUMPI DUP1 PUSH4 0x213681CD EQ PUSH2 0x159 JUMPI JUMPDEST PUSH1 0x0 DUP1 REVERT JUMPDEST PUSH2 0x10D PUSH2 0x108 CALLDATASIZE PUSH1 0x4 PUSH2 0x89A JUMP JUMPDEST PUSH2 0x2F2 JUMP JUMPDEST PUSH1 0x40 MLOAD SWAP1 ISZERO ISZERO DUP2 MSTORE PUSH1 0x20 ADD JUMPDEST PUSH1 0x40 MLOAD DUP1 SWAP2 SUB SWAP1 RETURN JUMPDEST PUSH2 0x10D PUSH2 0x130 CALLDATASIZE PUSH1 0x4 PUSH2 0x8CB JUMP JUMPDEST PUSH1 0x0 SWAP1 DUP2 MSTORE PUSH1 0x1 PUSH1 0x20 DUP2 SWAP1 MSTORE PUSH1 0x40 SWAP1 SWAP2 KECCAK256 ADD SLOAD PUSH1 0x1 PUSH1 0xA0 SHL SWAP1 DIV PUSH8 0xFFFFFFFFFFFFFFFF AND ISZERO ISZERO SWAP1 JUMP JUMPDEST PUSH2 0x1AA PUSH2 0x167 CALLDATASIZE PUSH1 0x4 PUSH2 0x8CB JUMP JUMPDEST PUSH1 0x0 SWAP1 DUP2 MSTORE PUSH1 0x1 PUSH1 0x20 DUP2 SWAP1 MSTORE PUSH1 0x40 SWAP1 SWAP2 KECCAK256 DUP1 SLOAD SWAP2 ADD SLOAD SWAP1 SWAP2 PUSH1 0x1 PUSH1 0x1 PUSH1 0xA0 SHL SUB DUP3 AND SWAP2 PUSH1 0x1 PUSH1 0xA0 SHL DUP2 DIV PUSH8 0xFFFFFFFFFFFFFFFF AND SWAP2 PUSH1 0x1 PUSH1 0xE0 SHL SWAP1 SWAP2 DIV PUSH1 0xFF AND SWAP1 JUMP JUMPDEST PUSH1 0x40 DUP1 MLOAD SWAP5 DUP6 MSTORE PUSH1 0x1 PUSH1 0x1 PUSH1 0xA0 SHL SUB SWAP1 SWAP4 AND PUSH1 0x20 DUP6 ADD MSTORE PUSH8 0xFFFFFFFFFFFFFFFF SWAP1 SWAP2 AND SWAP2 DUP4 ADD SWAP2 SWAP1 SWAP2 MSTORE ISZERO ISZERO PUSH1 0x60 DUP3 ADD MSTORE PUSH1 0x80 ADD PUSH2 0x119 JUMP JUMPDEST PUSH2 0x1F6 PUSH2 0x1F1 CALLDATASIZE PUSH1 0x4 PUSH2 0x8CB JUMP JUMPDEST PUSH2 0x329 JUMP JUMPDEST STOP JUMPDEST PUSH2 0x21B PUSH2 0x206 CALLDATASIZE PUSH1 0x4 PUSH2 0x8CB JUMP JUMPDEST PUSH1 0x0 SWAP1 DUP2 MSTORE PUSH1 0x20 DUP2 SWAP1 MSTORE PUSH1 0x40 SWAP1 KECCAK256 PUSH1 0x1 ADD SLOAD SWAP1 JUMP JUMPDEST PUSH1 0x40 MLOAD SWAP1 DUP2 MSTORE PUSH1 0x20 ADD PUSH2 0x119 JUMP JUMPDEST PUSH2 0x1F6 PUSH2 0x237 CALLDATASIZE PUSH1 0x4 PUSH2 0x8E4 JUMP JUMPDEST PUSH2 0x465 JUMP JUMPDEST PUSH2 0x1F6 PUSH2 0x24A CALLDATASIZE PUSH1 0x4 PUSH2 0x922 JUMP JUMPDEST PUSH2 0x5E6 JUMP JUMPDEST PUSH2 0x1F6 PUSH2 0x25D CALLDATASIZE PUSH1 0x4 PUSH2 0x922 JUMP JUMPDEST PUSH2 0x611 JUMP JUMPDEST PUSH1 0x40 DUP1 MLOAD DUP1 DUP3 ADD DUP3 MSTORE PUSH1 0x5 DUP2 MSTORE PUSH5 0x312E302E3 PUSH1 0xDC SHL PUSH1 0x20 DUP3 ADD MSTORE SWAP1 MLOAD PUSH2 0x119 SWAP2 SWAP1 PUSH2 0x94E JUMP JUMPDEST PUSH2 0x21B PUSH1 0x0 DUP1 MLOAD PUSH1 0x20 PUSH2 0x9B9 DUP4 CODECOPY DUP2 MLOAD SWAP2 MSTORE DUP2 JUMP JUMPDEST PUSH2 0x10D PUSH2 0x2AC CALLDATASIZE PUSH1 0x4 PUSH2 0x922 JUMP JUMPDEST PUSH2 0x649 JUMP JUMPDEST PUSH2 0x21B PUSH1 0x0 DUP2 JUMP JUMPDEST PUSH2 0x1F6 PUSH2 0x2C7 CALLDATASIZE PUSH1 0x4 PUSH2 0x99D JUMP JUMPDEST PUSH2 0x672 JUMP JUMPDEST PUSH2 0x1F6 PUSH2 0x2DA CALLDATASIZE PUSH1 0x4 PUSH2 0x922 JUMP JUMPDEST PUSH2 0x6D0 JUMP JUMPDEST PUSH2 0x1F6 PUSH2 0x2ED CALLDATASIZE PUSH1 0x4 PUSH2 0x99D JUMP JUMPDEST PUSH2 0x6F5 JUMP JUMPDEST PUSH1 0x0 PUSH1 0x1 PUSH1 0x1 PUSH1 0xE0 SHL SUB NOT DUP3 AND PUSH4 0x7965DB0B PUSH1 0xE0 SHL EQ DUP1 PUSH2 0x323 JUMPI POP PUSH4 0x1FFC9A7 PUSH1 0xE0 SHL PUSH1 0x1 PUSH1 0x1 PUSH1 0xE0 SHL SUB NOT DUP4 AND EQ JUMPDEST SWAP3 SWAP2 POP POP JUMP JUMPDEST PUSH1 0x0 DUP1 MLOAD PUSH1 0x20 PUSH2 0x9B9 DUP4 CODECOPY DUP2 MLOAD SWAP2 MSTORE PUSH2 0x341 DUP2 PUSH2 0x753 JUMP JUMPDEST PUSH1 0x0 DUP3 DUP2 MSTORE PUSH1 0x1 PUSH1 0x20 DUP2 SWAP1 MSTORE PUSH1 0x40 DUP3 KECCAK256 SWAP1 DUP2 ADD SLOAD SWAP1 SWAP2 PUSH1 0x1 PUSH1 0xA0 SHL SWAP1 SWAP2 DIV PUSH8 0xFFFFFFFFFFFFFFFF AND SWAP1 SUB PUSH2 0x3AD JUMPI PUSH1 0x40 MLOAD PUSH3 0x461BCD PUSH1 0xE5 SHL DUP2 MSTORE PUSH1 0x20 PUSH1 0x4 DUP3 ADD MSTORE PUSH1 0xE PUSH1 0x24 DUP3 ADD MSTORE PUSH14 0x5265636F7264206D697373696E67 PUSH1 0x90 SHL PUSH1 0x44 DUP3 ADD MSTORE PUSH1 0x64 ADD JUMPDEST PUSH1 0x40 MLOAD DUP1 SWAP2 SUB SWAP1 REVERT JUMPDEST PUSH1 0x1 DUP2 ADD SLOAD PUSH1 0x1 PUSH1 0xE0 SHL SWAP1 DIV PUSH1 0xFF AND PUSH2 0x3FC JUMPI PUSH1 0x40 MLOAD PUSH3 0x461BCD PUSH1 0xE5 SHL DUP2 MSTORE PUSH1 0x20 PUSH1 0x4 DUP3 ADD MSTORE PUSH1 0x11 PUSH1 0x24 DUP3 ADD MSTORE PUSH17 0x5265636F7264206E6F7420616374697665 PUSH1 0x78 SHL PUSH1 0x44 DUP3 ADD MSTORE PUSH1 0x64 ADD PUSH2 0x3A4 JUMP JUMPDEST PUSH1 0x1 DUP2 ADD DUP1 SLOAD PUSH1 0x1 PUSH1 0x1 PUSH1 0xE8 SHL SUB NOT AND CALLER PUSH8 0xFFFFFFFFFFFFFFFF PUSH1 0xA0 SHL NOT DUP2 AND SWAP2 SWAP1 SWAP2 OR PUSH1 0x1 PUSH1 0xA0 SHL TIMESTAMP PUSH8 0xFFFFFFFFFFFFFFFF AND MUL OR SWAP1 SWAP2 SSTORE PUSH1 0x40 MLOAD DUP5 SWAP1 PUSH32 0xAC6317DFD4553E8189EB70DA37D8639680A8402CD2B58968ED9FCAA0ED1F98BE SWAP1 PUSH1 0x0 SWAP1 LOG3 POP POP POP JUMP JUMPDEST PUSH1 0x0 DUP1 MLOAD PUSH1 0x20 PUSH2 0x9B9 DUP4 CODECOPY DUP2 MLOAD SWAP2 MSTORE PUSH2 0x47D DUP2 PUSH2 0x753 JUMP JUMPDEST DUP3 PUSH2 0x4C3 JUMPI PUSH1 0x40 MLOAD PUSH3 0x461BCD PUSH1 0xE5 SHL DUP2 MSTORE PUSH1 0x20 PUSH1 0x4 DUP3 ADD MSTORE PUSH1 0x16 PUSH1 0x24 DUP3 ADD MSTORE PUSH22 0x1CDD1D59195B9D125912185CDA081C995C5D5A5C9959 PUSH1 0x52 SHL PUSH1 0x44 DUP3 ADD MSTORE PUSH1 0x64 ADD PUSH2 0x3A4 JUMP JUMPDEST DUP2 PUSH2 0x504 JUMPI PUSH1 0x40 MLOAD PUSH3 0x461BCD PUSH1 0xE5 SHL DUP2 MSTORE PUSH1 0x20 PUSH1 0x4 DUP3 ADD MSTORE PUSH1 0x11 PUSH1 0x24 DUP3 ADD MSTORE PUSH17 0x19185D1852185CDA081C995C5D5A5C9959 PUSH1 0x7A SHL PUSH1 0x44 DUP3 ADD MSTORE PUSH1 0x64 ADD PUSH2 0x3A4 JUMP JUMPDEST PUSH1 0x0 DUP4 DUP2 MSTORE PUSH1 0x1 PUSH1 0x20 DUP2 SWAP1 MSTORE PUSH1 0x40 SWAP1 SWAP2 KECCAK256 SWAP1 DUP2 ADD DUP1 SLOAD DUP5 DUP4 SSTORE PUSH1 0xFF PUSH1 0xE0 SHL NOT TIMESTAMP PUSH8 0xFFFFFFFFFFFFFFFF SWAP1 DUP2 AND PUSH1 0x1 PUSH1 0xA0 SHL SWAP1 DUP2 MUL PUSH8 0xFFFFFFFFFFFFFFFF PUSH1 0xA0 SHL NOT CALLER AND PUSH1 0x1 PUSH1 0x1 PUSH1 0xE0 SHL SUB NOT DUP7 AND OR OR SWAP3 SWAP1 SWAP3 AND PUSH1 0x1 PUSH1 0xE0 SHL OR SWAP1 SWAP4 SSTORE SWAP1 DIV AND ISZERO DUP1 ISZERO PUSH2 0x5A7 JUMPI PUSH1 0x40 MLOAD DUP5 DUP2 MSTORE CALLER SWAP1 DUP7 SWAP1 PUSH32 0xED8A341186D98323E365768F9F0D1A8F4BEE0348C651D64E4838A28FBE69420E SWAP1 PUSH1 0x20 ADD PUSH1 0x40 MLOAD DUP1 SWAP2 SUB SWAP1 LOG3 PUSH2 0x5DF JUMP JUMPDEST PUSH1 0x40 MLOAD DUP5 DUP2 MSTORE CALLER SWAP1 DUP7 SWAP1 PUSH32 0xCFBF569FD89865B2715A29F5FF34DF5A6BF5206E4F30D5E29C34B96B3922A8E7 SWAP1 PUSH1 0x20 ADD PUSH1 0x40 MLOAD DUP1 SWAP2 SUB SWAP1 LOG3 JUMPDEST POP POP POP POP POP JUMP JUMPDEST PUSH1 0x0 DUP3 DUP2 MSTORE PUSH1 0x20 DUP2 SWAP1 MSTORE PUSH1 0x40 SWAP1 KECCAK256 PUSH1 0x1 ADD SLOAD PUSH2 0x601 DUP2 PUSH2 0x753 JUMP JUMPDEST PUSH2 0x60B DUP4 DUP4 PUSH2 0x760 JUMP JUMPDEST POP POP POP POP JUMP JUMPDEST PUSH1 0x1 PUSH1 0x1 PUSH1 0xA0 SHL SUB DUP2 AND CALLER EQ PUSH2 0x63A JUMPI PUSH1 0x40 MLOAD PUSH4 0x334BD919 PUSH1 0xE1 SHL DUP2 MSTORE PUSH1 0x4 ADD PUSH1 0x40 MLOAD DUP1 SWAP2 SUB SWAP1 REVERT JUMPDEST PUSH2 0x644 DUP3 DUP3 PUSH2 0x7F2 JUMP JUMPDEST POP POP POP JUMP JUMPDEST PUSH1 0x0 SWAP2 DUP3 MSTORE PUSH1 0x20 DUP3 DUP2 MSTORE PUSH1 0x40 DUP1 DUP5 KECCAK256 PUSH1 0x1 PUSH1 0x1 PUSH1 0xA0 SHL SUB SWAP4 SWAP1 SWAP4 AND DUP5 MSTORE SWAP2 SWAP1 MSTORE SWAP1 KECCAK256 SLOAD PUSH1 0xFF AND SWAP1 JUMP JUMPDEST PUSH1 0x0 PUSH2 0x67D DUP2 PUSH2 0x753 JUMP JUMPDEST PUSH2 0x695 PUSH1 0x0 DUP1 MLOAD PUSH1 0x20 PUSH2 0x9B9 DUP4 CODECOPY DUP2 MLOAD SWAP2 MSTORE DUP4 PUSH2 0x7F2 JUMP JUMPDEST POP PUSH1 0x40 MLOAD CALLER SWAP1 PUSH1 0x1 PUSH1 0x1 PUSH1 0xA0 SHL SUB DUP5 AND SWAP1 PUSH32 0x9904953BB513AAB6C91617971DE155AF91F29B17D1D92F4E5C5378DCEA1EC3A2 SWAP1 PUSH1 0x0 SWAP1 LOG3 POP POP JUMP JUMPDEST PUSH1 0x0 DUP3 DUP2 MSTORE PUSH1 0x20 DUP2 SWAP1 MSTORE PUSH1 0x40 SWAP1 KECCAK256 PUSH1 0x1 ADD SLOAD PUSH2 0x6EB DUP2 PUSH2 0x753 JUMP JUMPDEST PUSH2 0x60B DUP4 DUP4 PUSH2 0x7F2 JUMP JUMPDEST PUSH1 0x0 PUSH2 0x700 DUP2 PUSH2 0x753 JUMP JUMPDEST PUSH2 0x718 PUSH1 0x0 DUP1 MLOAD PUSH1 0x20 PUSH2 0x9B9 DUP4 CODECOPY DUP2 MLOAD SWAP2 MSTORE DUP4 PUSH2 0x760 JUMP JUMPDEST POP PUSH1 0x40 MLOAD CALLER SWAP1 PUSH1 0x1 PUSH1 0x1 PUSH1 0xA0 SHL SUB DUP5 AND SWAP1 PUSH32 0xCF99003EFE555DAD594E29C94805056E4A181044B6E05B04144706134F55C17C SWAP1 PUSH1 0x0 SWAP1 LOG3 POP POP JUMP JUMPDEST PUSH2 0x75D DUP2 CALLER PUSH2 0x85D JUMP JUMPDEST POP JUMP JUMPDEST PUSH1 0x0 PUSH2 0x76C DUP4 DUP4 PUSH2 0x649 JUMP JUMPDEST PUSH2 0x7EA JUMPI PUSH1 0x0 DUP4 DUP2 MSTORE PUSH1 0x20 DUP2 DUP2 MSTORE PUSH1 0x40 DUP1 DUP4 KECCAK256 PUSH1 0x1 PUSH1 0x1 PUSH1 0xA0 SHL SUB DUP7 AND DUP5 MSTORE SWAP1 SWAP2 MSTORE SWAP1 KECCAK256 DUP1 SLOAD PUSH1 0xFF NOT AND PUSH1 0x1 OR SWAP1 SSTORE PUSH2 0x7A2 CALLER SWAP1 JUMP JUMPDEST PUSH1 0x1 PUSH1 0x1 PUSH1 0xA0 SHL SUB AND DUP3 PUSH1 0x1 PUSH1 0x1 PUSH1 0xA0 SHL SUB AND DUP5 PUSH32 0x2F8788117E7EFF1D82E926EC794901D17C78024A50270940304540A733656F0D PUSH1 0x40 MLOAD PUSH1 0x40 MLOAD DUP1 SWAP2 SUB SWAP1 LOG4 POP PUSH1 0x1 PUSH2 0x323 JUMP JUMPDEST POP PUSH1 0x0 PUSH2 0x323 JUMP JUMPDEST PUSH1 0x0 PUSH2 0x7FE DUP4 DUP4 PUSH2 0x649 JUMP JUMPDEST ISZERO PUSH2 0x7EA JUMPI PUSH1 0x0 DUP4 DUP2 MSTORE PUSH1 0x20 DUP2 DUP2 MSTORE PUSH1 0x40 DUP1 DUP4 KECCAK256 PUSH1 0x1 PUSH1 0x1 PUSH1 0xA0 SHL SUB DUP7 AND DUP1 DUP6 MSTORE SWAP3 MSTORE DUP1 DUP4 KECCAK256 DUP1 SLOAD PUSH1 0xFF NOT AND SWAP1 SSTORE MLOAD CALLER SWAP3 DUP7 SWAP2 PUSH32 0xF6391F5C32D9C69D2A47EA670B442974B53935D1EDC7FD64EB21E047A839171B SWAP2 SWAP1 LOG4 POP PUSH1 0x1 PUSH2 0x323 JUMP JUMPDEST PUSH2 0x867 DUP3 DUP3 PUSH2 0x649 JUMP JUMPDEST PUSH2 0x896 JUMPI PUSH1 0x40 MLOAD PUSH4 0xE2517D3F PUSH1 0xE0 SHL DUP2 MSTORE PUSH1 0x1 PUSH1 0x1 PUSH1 0xA0 SHL SUB DUP3 AND PUSH1 0x4 DUP3 ADD MSTORE PUSH1 0x24 DUP2 ADD DUP4 SWAP1 MSTORE PUSH1 0x44 ADD PUSH2 0x3A4 JUMP JUMPDEST POP POP JUMP JUMPDEST PUSH1 0x0 PUSH1 0x20 DUP3 DUP5 SUB SLT ISZERO PUSH2 0x8AC JUMPI PUSH1 0x0 DUP1 REVERT JUMPDEST DUP2 CALLDATALOAD PUSH1 0x1 PUSH1 0x1 PUSH1 0xE0 SHL SUB NOT DUP2 AND DUP2 EQ PUSH2 0x8C4 JUMPI PUSH1 0x0 DUP1 REVERT JUMPDEST SWAP4 SWAP3 POP POP POP JUMP JUMPDEST PUSH1 0x0 PUSH1 0x20 DUP3 DUP5 SUB SLT ISZERO PUSH2 0x8DD JUMPI PUSH1 0x0 DUP1 REVERT JUMPDEST POP CALLDATALOAD SWAP2 SWAP1 POP JUMP JUMPDEST PUSH1 0x0 DUP1 PUSH1 0x40 DUP4 DUP6 SUB SLT ISZERO PUSH2 0x8F7 JUMPI PUSH1 0x0 DUP1 REVERT JUMPDEST POP POP DUP1 CALLDATALOAD SWAP3 PUSH1 0x20 SWAP1 SWAP2 ADD CALLDATALOAD SWAP2 POP JUMP JUMPDEST DUP1 CALLDATALOAD PUSH1 0x1 PUSH1 0x1 PUSH1 0xA0 SHL SUB DUP2 AND DUP2 EQ PUSH2 0x91D JUMPI PUSH1 0x0 DUP1 REVERT JUMPDEST SWAP2 SWAP1 POP JUMP JUMPDEST PUSH1 0x0 DUP1 PUSH1 0x40 DUP4 DUP6 SUB SLT ISZERO PUSH2 0x935 JUMPI PUSH1 0x0 DUP1 REVERT JUMPDEST DUP3 CALLDATALOAD SWAP2 POP PUSH2 0x945 PUSH1 0x20 DUP5 ADD PUSH2 0x906 JUMP JUMPDEST SWAP1 POP SWAP3 POP SWAP3 SWAP1 POP JUMP JUMPDEST PUSH1 0x0 PUSH1 0x20 DUP1 DUP4 MSTORE DUP4 MLOAD DUP1 PUSH1 0x20 DUP6 ADD MSTORE PUSH1 0x0 JUMPDEST DUP2 DUP2 LT ISZERO PUSH2 0x97C JUMPI DUP6 DUP2 ADD DUP4 ADD MLOAD DUP6 DUP3 ADD PUSH1 0x40 ADD MSTORE DUP3 ADD PUSH2 0x960 JUMP JUMPDEST POP PUSH1 0x0 PUSH1 0x40 DUP3 DUP7 ADD ADD MSTORE PUSH1 0x40 PUSH1 0x1F NOT PUSH1 0x1F DUP4 ADD AND DUP6 ADD ADD SWAP3 POP POP POP SWAP3 SWAP2 POP POP JUMP JUMPDEST PUSH1 0x0 PUSH1 0x20 DUP3 DUP5 SUB SLT ISZERO PUSH2 0x9AF JUMPI PUSH1 0x0 DUP1 REVERT JUMPDEST PUSH2 0x8C4 DUP3 PUSH2 0x906 JUMP INVALID 0xD1 PUSH15 0x204B8A42A15AB0EA6BB8EC1ECDFBE6 SWAP16 CODESIZE SMOD 0x4F 0xC8 PUSH6 0x323AF19EFE7D SWAP6 PUSH20 0xD9A264697066735822122041D04DF6B418E07A8C DUP16 0xB7 RETURN ORIGIN 0x25 BLOCKHASH 0xAC CALLER SSTORE SAR 0x2D JUMPDEST CALLDATASIZE SWAP9 0x22 0xBB CALLCODE PUSH14 0xB20407F91164736F6C6343000818 STOP CALLER "},"methodIdentifiers":{"DEFAULT_ADMIN_ROLE()":"a217fddf","TEACHER_ROLE()":"86e5c15a","deactivate(bytes32)":"22eee84c","getRecord(bytes32)":"213681cd","getRoleAdmin(bytes32)":"248a9ca3","grantRole(bytes32,address)":"2f2ff15d","grantTeacher(address)":"f59d3abe","hasRecord(bytes32)":"0b95824b","hasRole(bytes32,address)":"91d14854","renounceRole(bytes32,address)":"36568abe","revokeRole(bytes32,address)":"d547741f","revokeTeacher(address)":"b0a0cfd7","supportsInterface(bytes4)":"01ffc9a7","upsertRecord(bytes32,bytes32)":"29ddb3ba","version()":"54fd4d50"}}}}}