{
  "_format": "hh-sol-artifact-1",
  "contractName": "StudentRegistry",
  "sourceName": "contracts/StudentRegistry.sol",
  "abi": [
    {
      "inputs": [],
      "stateMutability": "nonpayable",
      "type": "constructor"
    },
    {
      "inputs": [],
      "name": "AccessControlBadConfirmation",
      "type": "error"
    },
    {
      "inputs": [
        {
          "internalType": "address",
          "name": "account",
          "type": "address"
        },
        {
          "internalType": "bytes32",
          "name": "neededRole",
          "type": "bytes32"
        }
      ],
      "name": "AccessControlUnauthorizedAccount",
      "type": "error"
    },
    {
      "anonymous": false,
      "inputs": [
        {
          "indexed": true,
          "internalType": "bytes32",
          "name": "studentIdHash",
          "type": "bytes32"
        },
        {
          "indexed": false,
          "internalType": "bytes32",
          "name": "dataHash",
          "type": "bytes32"
        },
        {
          "indexed": true,
          "internalType": "address",
          "name": "actor",
          "type": "address"
        }
      ],
      "name": "RecordAdded",
      "type": "event"
    },
    {
      "anonymous": false,
      "inputs": [
        {
          "indexed": true,
          "internalType": "bytes32",
          "name": "studentIdHash",
          "type": "bytes32"
        },
        {
          "indexed": true,
          "internalType": "address",
          "name": "actor",
          "type": "address"
        }
      ],
      "name": "RecordDeactivated",
      "type": "event"
    },
    {
      "anonymous": false,
      "inputs": [
        {
          "indexed": true,
          "internalType": "bytes32",
          "name": "studentIdHash",
          "type": "bytes32"
        },
        {
          "indexed": false,
          "internalType": "bytes32",
          "name": "dataHash",
          "type": "bytes32"
        },
        {
          "indexed": true,
          "internalType": "address",
          "name": "actor",
          "type": "address"
        }
      ],
      "name": "RecordUpdated",
      "type": "event"
    },
    {
      "anonymous": false,
      "inputs": [
        {
          "indexed": true,
          "internalType": "bytes32",
          "name": "role",
          "type": "bytes32"
        },
        {
          "indexed": true,
          "internalType": "bytes32",
          "name": "previousAdminRole",
          "type": "bytes32"
        },
        {
          "indexed": true,
          "internalType": "bytes32",
          "name": "newAdminRole",
          "type": "bytes32"
        }
      ],
      "name": "RoleAdminChanged",
      "type": "event"
    },
    {
      "anonymous": false,
      "inputs": [
        {
          "indexed": true,
          "internalType": "bytes32",
          "name": "role",
          "type": "bytes32"
        },
        {
          "indexed": true,
          "internalType": "address",
          "name": "account",
          "type": "address"
        },
        {
          "indexed": true,
          "internalType": "address",
          "name": "sender",
          "type": "address"
        }
      ],
      "name": "RoleGranted",
      "type": "event"
    },
    {
      "anonymous": false,
      "inputs": [
        {
          "indexed": true,
          "internalType": "bytes32",
          "name": "role",
          "type": "bytes32"
        },
        {
          "indexed": true,
          "internalType": "address",
          "name": "account",
          "type": "address"
        },
        {
          "indexed": true,
          "internalType": "address",
          "name": "sender",
          "type": "address"
        }
      ],
      "name": "RoleRevoked",
      "type": "event"
    },
    {
      "anonymous": false,
      "inputs": [
        {
          "indexed": true,
          "internalType": "address",
          "name": "account",
          "type": "address"
        },
        {
          "indexed": true,
          "internalType": "address",
          "name": "grantedBy",
          "type": "address"
        }
      ],
      "name": "TeacherGranted",
      "type": "event"
    },
    {
      "anonymous": false,
      "inputs": [
        {
          "indexed": true,
          "internalType": "address",
          "name": "account",
          "type": "address"
        },
        {
          "indexed": true,
          "internalType": "address",
          "name": "revokedBy",
          "type": "address"
        }
      ],
      "name": "TeacherRevoked",
      "type": "event"
    },
    {
      "inputs": [],
      "name": "DEFAULT_ADMIN_ROLE",
      "outputs": [
        {
          "internalType": "bytes32",
          "name": "",
          "type": "bytes32"
        }
      ],
      "stateMutability": "view",
      "type": "function"
    },
    {
      "inputs": [],
      "name": "TEACHER_ROLE",
      "outputs": [
        {
          "internalType": "bytes32",
          "name": "",
          "type": "bytes32"
        }
      ],
      "stateMutability": "view",
      "type": "function"
    },
    {
      "inputs": [
        {
          "internalType": "bytes32",
          "name": "studentIdHash",
          "type": "bytes32"
        }
      ],
      "name": "deactivate",
      "outputs": [],
      "stateMutability": "nonpayable",
      "type": "function"
    },
    {
      "inputs": [
        {
          "internalType": "bytes32",
          "name": "studentIdHash",
          "type": "bytes32"
        }
      ],
      "name": "getRecord",
      "outputs": [
        {
          "internalType": "bytes32",
          "name": "dataHash",
          "type": "bytes32"
        },
        {
          "internalType": "address",
          "name": "lastUpdatedBy",
          "type": "address"
        },
        {
          "internalType": "uint64",
          "name": "updatedAt",
          "type": "uint64"
        },
        {
          "internalType": "bool",
          "name": "isActive",
          "type": "bool"
        }
      ],
      "stateMutability": "view",
      "type": "function"
    },
    {
      "inputs": [
        {
          "internalType": "bytes32",
          "name": "role",
          "type": "bytes32"
        }
      ],
      "name": "getRoleAdmin",
      "outputs": [
        {
          "internalType": "bytes32",
          "name": "",
          "type": "bytes32"
        }
      ],
      "stateMutability": "view",
      "type": "function"
    },
    {
      "inputs": [
        {
          "internalType": "bytes32",
          "name": "role",
          "type": "bytes32"
        },
        {
          "internalType": "address",
          "name": "account",
          "type": "address"
        }
      ],
      "name": "grantRole",
      "outputs": [],
      "stateMutability": "nonpayable",
      "type": "function"
    },
    {
      "inputs": [
        {
          "internalType": "address",
          "name": "account",
          "type": "address"
        }
      ],
      "name": "grantTeacher",
      "outputs": [],
      "stateMutability": "nonpayable",
      "type": "function"
    },
    {
      "inputs": [
        {
          "internalType": "bytes32",
          "name": "studentIdHash",
          "type": "bytes32"
        }
      ],
      "name": "hasRecord",
      "outputs": [
        {
          "internalType": "bool",
          "name": "",
          "type": "bool"
        }
      ],
      "stateMutability": "view",
      "type": "function"
    },
    {
      "inputs": [
        {
          "internalType": "bytes32",
          "name": "role",
          "type": "bytes32"
        },
        {
          "internalType": "address",
          "name": "account",
          "type": "address"
        }
      ],
      "name": "hasRole",
      "outputs": [
        {
          "internalType": "bool",
          "name": "",
          "type": "bool"
        }
      ],
      "stateMutability": "view",
      "type": "function"
    },
    {
      "inputs": [
        {
          "internalType": "bytes32",
          "name": "role",
          "type": "bytes32"
        },
        {
          "internalType": "address",
          "name": "callerConfirmation",
          "type": "address"
        }
      ],
      "name": "renounceRole",
      "outputs": [],
      "stateMutability": "nonpayable",
      "type": "function"
    },
    {
      "inputs": [
        {
          "internalType": "bytes32",
          "name": "role",
          "type": "bytes32"
        },
        {
          "internalType": "address",
          "name": "account",
          "type": "address"
        }
      ],
      "name": "revokeRole",
      "outputs": [],
      "stateMutability": "nonpayable",
      "type": "function"
    },
    {
      "inputs": [
        {
          "internalType": "address",
          "name": "account",
          "type": "address"
        }
      ],
      "name": "revokeTeacher",
      "outputs": [],
      "stateMutability": "nonpayable",
      "type": "function"
    },
    {
      "inputs": [
        {
          "internalType": "bytes4",
          "name": "interfaceId",
          "type": "bytes4"
        }
      ],
      "name": "supportsInterface",
      "outputs": [
        {
          "internalType": "bool",
          "name": "",
          "type": "bool"
        }
      ],
      "stateMutability": "view",
      "type": "function"
    },
    {
      "inputs": [
        {
          "internalType": "bytes32",
          "name": "studentIdHash",
          "type": "bytes32"
        },
        {
          "internalType": "bytes32",
          "name": "dataHash",
          "type": "bytes32"
        }
      ],
      "name": "upsertRecord",
      "outputs": [],
      "stateMutability": "nonpayable",
      "type": "function"
    },
    {
      "inputs": [],
      "name": "version",
      "outputs": [
        {
          "internalType": "string",
          "name": "",
          "type": "string"
        }
      ],
      "stateMutability": "pure",
      "type": "function"
    }
  ],
  "bytecode": "0x608060405234801561001057600080fd5b5061001c600033610022565b506100ce565b6000828152602081815260408083206001600160a01b038516845290915281205460ff166100c4576000838152602081815260408083206001600160a01b03861684529091529020805460ff1916600117905561007c3390565b6001600160a01b0316826001600160a01b0316847f2f8788117e7eff1d82e926ec794901d17c78024a50270940304540a733656f0d60405160405180910390a45060016100c8565b5060005b92915050565b610a0e806100dd6000396000f3fe608060405234801561001057600080fd5b50600436106100f55760003560e01c806336568abe11610097578063a217fddf11610066578063a217fddf146102b1578063b0a0cfd7146102b9578063d547741f146102cc578063f59d3abe146102df57600080fd5b806336568abe1461024f57806354fd4d501461026257806386e5c15a1461028957806391d148541461029e57600080fd5b806322eee84c116100d357806322eee84c146101e3578063248a9ca3146101f857806329ddb3ba146102295780632f2ff15d1461023c57600080fd5b806301ffc9a7146100fa5780630b95824b14610122578063213681cd14610159575b600080fd5b61010d61010836600461089a565b6102f2565b60405190151581526020015b60405180910390f35b61010d6101303660046108cb565b60009081526001602081905260409091200154600160a01b900467ffffffffffffffff16151590565b6101aa6101673660046108cb565b6000908152600160208190526040909120805491015490916001600160a01b03821691600160a01b810467ffffffffffffffff1691600160e01b90910460ff1690565b604080519485526001600160a01b03909316602085015267ffffffffffffffff9091169183019190915215156060820152608001610119565b6101f66101f13660046108cb565b610329565b005b61021b6102063660046108cb565b60009081526020819052604090206001015490565b604051908152602001610119565b6101f66102373660046108e4565b610465565b6101f661024a366004610922565b6105e6565b6101f661025d366004610922565b610611565b60408051808201825260058152640312e302e360dc1b60208201529051610119919061094e565b61021b6000805160206109b983398151915281565b61010d6102ac366004610922565b610649565b61021b600081565b6101f66102c736600461099d565b610672565b6101f66102da366004610922565b6106d0565b6101f66102ed36600461099d565b6106f5565b60006001600160e01b03198216637965db0b60e01b148061032357506301ffc9a760e01b6001600160e01b03198316145b92915050565b6000805160206109b983398151915261034181610753565b60008281526001602081905260408220908101549091600160a01b90910467ffffffffffffffff1690036103ad5760405162461bcd60e51b815260206004820152600e60248201526d5265636f7264206d697373696e6760901b60448201526064015b60405180910390fd5b6001810154600160e01b900460ff166103fc5760405162461bcd60e51b81526020600482015260116024820152705265636f7264206e6f742061637469766560781b60448201526064016103a4565b6001810180546001600160e81b0319163367ffffffffffffffff60a01b19811691909117600160a01b4267ffffffffffffffff16021790915560405184907fac6317dfd4553e8189eb70da37d8639680a8402cd2b58968ed9fcaa0ed1f98be90600090a3505050565b6000805160206109b983398151915261047d81610753565b826104c35760405162461bcd60e51b81526020600482015260166024820152751cdd1d59195b9d125912185cda081c995c5d5a5c995960521b60448201526064016103a4565b816105045760405162461bcd60e51b815260206004820152601160248201527019185d1852185cda081c995c5d5a5c9959607a1b60448201526064016103a4565b6000838152600160208190526040909120908101805484835560ff60e01b194267ffffffffffffffff908116600160a01b90810267ffffffffffffffff60a01b1933166001600160e01b03198616171792909216600160e01b179093559004161580156105a757604051848152339086907fed8a341186d98323e365768f9f0d1a8f4bee0348c651d64e4838a28fbe69420e9060200160405180910390a36105df565b604051848152339086907fcfbf569fd89865b2715a29f5ff34df5a6bf5206e4f30d5e29c34b96b3922a8e79060200160405180910390a35b5050505050565b60008281526020819052604090206001015461060181610753565b61060b8383610760565b50505050565b6001600160a01b038116331461063a5760405163334bd91960e11b815260040160405180910390fd5b61064482826107f2565b505050565b6000918252602082815260408084206001600160a01b0393909316845291905290205460ff1690565b600061067d81610753565b6106956000805160206109b9833981519152836107f2565b5060405133906001600160a01b038416907f9904953bb513aab6c91617971de155af91f29b17d1d92f4e5c5378dcea1ec3a290600090a35050565b6000828152602081905260409020600101546106eb81610753565b61060b83836107f2565b600061070081610753565b6107186000805160206109b983398151915283610760565b5060405133906001600160a01b038416907fcf99003efe555dad594e29c94805056e4a181044b6e05b04144706134f55c17c90600090a35050565b61075d813361085d565b50565b600061076c8383610649565b6107ea576000838152602081815260408083206001600160a01b03861684529091529020805460ff191660011790556107a23390565b6001600160a01b0316826001600160a01b0316847f2f8788117e7eff1d82e926ec794901d17c78024a50270940304540a733656f0d60405160405180910390a4506001610323565b506000610323565b60006107fe8383610649565b156107ea576000838152602081815260408083206001600160a01b0386168085529252808320805460ff1916905551339286917ff6391f5c32d9c69d2a47ea670b442974b53935d1edc7fd64eb21e047a839171b9190a4506001610323565b6108678282610649565b6108965760405163e2517d3f60e01b81526001600160a01b0382166004820152602481018390526044016103a4565b5050565b6000602082840312156108ac57600080fd5b81356001600160e01b0319811681146108c457600080fd5b9392505050565b6000602082840312156108dd57600080fd5b5035919050565b600080604083850312156108f757600080fd5b50508035926020909101359150565b80356001600160a01b038116811461091d57600080fd5b919050565b6000806040838503121561093557600080fd5b8235915061094560208401610906565b90509250929050565b60006020808352835180602085015260005b8181101561097c57858101830151858201604001528201610960565b506000604082860101526040601f19601f8301168501019250505092915050565b6000602082840312156109af57600080fd5b6108c48261090656fed16e204b8a42a15ab0ea6bb8ec1ecdfbe69f38074fc865323af19efe7d9573d9a264697066735822122041d04df6b418e07a8c8fb7f3322540ac33551d2d5b369822bbf26db20407f91164736f6c63430008180033",
  "linkReferences": {},
  "deployedLinkReferences": {}
}